:020000040000FA
:020000000528D1
:08000800090083128501860145
:100010008316850103308600831208308D0090011D
:1000200022308F006400FC308316810083123A2155
:100030001B204E201728BC01BD01BE01BF01341892
:10004000BC17B4183C17351ABC16B51A3D16351B2B
:10005000BD16341A3C1634193D15B4193C17351821
:10006000BC14B5183C14B519BC1535193C158030B5
:100070003602BE0080303702BF0050303802031C09
:10008000BD14B130380203183D1450303902031C3E
:100090003D15B13039020318BD1508009B20113001
:1000A00084001B21033011060319FF2011300406C0
:1000B000031D67281108023A03197C281108003A29
:1000C000031991281108013A03198D284E28682830
:1000D00069286A286B2822308F009221FF3AB300EA
:1000E000333084000130CF201108C03A031D0800CE
:1000F000101013181014080020308C0013308400E6
:1001000080308000840A842885288C0B8028B830B1
:10011000B300133084002130CF283C3084000430F9
:10012000A2280530C0000030C1000130C2004030BC
:1001300084000330A22810308E00061C9B288E0BF2
:100140009D280800831606148312061083168C005F
:1001500008308D00800D0610AD280000031806142D
:100160008D0BC8288C0BC128B528B628031C061493
:10017000B928BA2806108312000008308D00061432
:100180000800840A08308D00031C06140000AA2809
:10019000C928CA280000031C06140000AA288316D8
:1001A00006148312061083168C0008308D00800D13
:1001B0000610DA280000031806148D0BF8288C0BA3
:1001C000F128E228E328031C0614E628E728061095
:1001D0008312000008308D00ED28EE280000061480
:1001E0000800840A08308D00031C06140000D7287C
:1001F000F928FA280000031C06140000D728061866
:10020000FF28800D00108D0B14298F0B0C2908304E
:100210008D00061800140800083006180014840A1F
:100220008D000618FF281129000016290618001451
:100230000618FF28182901308C00640006181D29B3
:10024000800D00108D0B33298C0B2B2908308D006D
:10025000061800140800083006180014840A8D00DF
:1002600006181D2930290000352906180014061823
:100270001D2937294030B4000330B5000030B600E6
:10028000101836143430840003304B21343084008D
:10029000083075210800861083168C0008308D0008
:1002A000800D861053290000031886148D0B6E29CB
:1002B0008C0B67295B295C29031C86145F29602944
:1002C00086108312000008308D0086140800840A0E
:1002D00008308D00031C8614000050296F297029F6
:1002E0000000031C8614000050298C008618762913
:1002F000800D00108D0B8B298C0B832908308D000D
:10030000861800140800083086180014840A8D002E
:1003100086187629882900008D29861800148618E9
:0C03200076298F2903308A001308820020
:10060000FF341434AC3447345934B2340A34E1344E
:100610003634DD3465348E3490347B34C33428343E
:10062000E8340334BB3450344E34A5341D34F6342E
:100630002134CA347234993487346C34D4343F341E
:10064000D1343A348234693477349C342434CF340E
:100650001834F3344B34A034BE345534ED340634FE
:10066000C6342D3495347E3460348B343334D834EE
:100670000F34E4345C34B734A9344234FA341134DE
:10068000A3344834F0341B340534EE345634BD34CE
:100690006A3481343934D234CC3427349F347434BE
:1006A000B4345F34E7340C341234F9344134AA34AE
:1006B0007D3496342E34C534DB343034883463349E
:1006C0008D346634DE3435342B34C034783493348E
:1006D0004434AF341734FC34E2340934B1345A347E
:1006E0009A347134C93422343C34D7346F3484346E
:1006F0005334B8340034EB34F5341E34A6344D345E
:100700004734AC341434FF34E1340A34B23459344D
:100710008E346534DD3436342834C3347B3490343D
:100720005034BB340334E834F6341D34A5344E342D
:1007300099347234CA3421343F34D4346C3487341D
:10074000693482343A34D134CF3424349C3477340D
:10075000A0344B34F33418340634ED345534BE34FD
:100760007E3495342D34C634D83433348B346034ED
:10077000B7345C34E4340F341134FA344234A934DD
:100780001B34F0344834A334BD345634EE340534CD
:10079000D234393481346A3474349F342734CC34BD
:1007A0000C34E7345F34B434AA344134F9341234AD
:1007B000C5342E3496347D34633488343034DB349D
:1007C0003534DE3466348D3493347834C0342B348D
:1007D000FC341734AF3444345A34B1340934E2347D
:1007E0002234C93471349A3484346F34D7343C346D
:1007F000EB340034B83453344D34A6341E34F5345D
:02400E00FE3F73
:00000001FF
