:020000040000FA
:100000000A30DB000830DA00C5218A2109200528E2
:100010000800803089204B08B500B601CA1BB60322
:1000200035084A08B700350889203708892037087D
:100030003507B8004D08B900BA01CC1BBA0339081E
:10004000B5004C08B70035088920370889203708E3
:100050003507B8074F08BB00BC01CE1BBC033B08EB
:10006000B5004E08B70035088920370889203708C1
:100070003507B8075108BD00BE01D01BBE033D08BF
:10008000B5005008B700350889203708892037089F
:100090003507B8075308BF00C001D21BC003520880
:1000A000B7003F08B5008920370889203708350791
:1000B000B8075508C100C201D41BC2035408B700D9
:1000C0004108B50089203708892037083507B80767
:1000D0005708C300C401D61BC4035608B700430821
:1000E000B50089203708892037083507B80759082F
:1000F000C500C601D81BC6035808B7004508B5009F
:1001000089203708892037083507B807380889203B
:100110000800B30009110611A3200830B400331CF5
:1001200093280915942809110310B30CA320B40BCC
:100130008F280915A320061508002030B200000002
:10014000B20B9F2808004030B1000000B10BA52879
:100150000800AC0047089F000F30C90583168601D0
:1001600083124808AD00031DB7285C14B8285C1042
:100170002D0BBC28DC14BD28DC102D08023A031D11
:10018000C3285C15C4285C112D08033A031DCA2836
:10019000DC15CB28DC115B08AE002C08C906490829
:1001A00086000000000000000000000000000000C9
:1001B000000000000000000000000000000000003F
:1001C000000000000000AE0BCD2808175C181F15BA
:1001D000000000000000000000000000000000001F
:1001E000000000000817DC181F15000000000000C8
:1001F00000000000000000000000000000000000FF
:1002000008175C191F150000000000000000000026
:10021000000000000000000000000817DC191F1596
:1002200008131F191129F030831686008312B001BC
:100230001E08AF00B000AF0183161E088312AF0482
:100240000030B0042F08C70030080800A00047089D
:10025000A100A201A301A401A5015A08A600A701BB
:100260000030C8002108C7002008A920A8004708BE
:10027000A20728080318280FA3070130C800210887
:10028000C7002008A920A9004708A40729080318C7
:10029000290FA5070230C8002108C7002008A9209F
:1002A000AA004708A2022A08031C2A0FA30203304F
:1002B000C8002108C7002008A920AB004708A402F5
:1002C0002B08031C2B0FA502FF30A607031CA70356
:1002D00026082704031D30292308803E803E03188A
:1002E0007629A209A309A20A0319A30A2508803EB8
:1002F000803E03188029A409A509A40A0319A50AA8
:100300002408A20725080318250FA3072208C70001
:10031000230808008130C70010302621CB00470891
:10032000CA008130C70020302621CD004708CC000C
:100330008130C70040302621CF004708CE00881703
:100340008130C70080302621D1004708D0008813B3
:100350008930C70010302621D3004708D2008930E9
:10036000C70020302621D5004708D4008930C700B7
:1003700040302621D7004708D6008930C70080309A
:100380002621D9004708D8000800FF3083168500D1
:100390008601870188010430890083128501860166
:1003A0008701880189010130C900823083169F00CE
:0A03B000813083129F008B170800B4
:02400E00FF3F72
:00000001FF
