:020000000029D5
:08000800002900308A001508F0
:1000100082070034043400340834003402340034DD
:100020000034003400340234003408340034043422
:100030000034003400340034043400340834003414
:100040000234003400340034003402340034083404
:1000500000340434003400340034003400340034FC
:1000600000340834003406340034003400340034E2
:1000700000340234083404340034003404340834C6
:1000800002340034003402340834043400340034C0
:1000900004340834023400340034003400340E34A4
:1000A00000340034003400340234003400340034AE
:1000B0000434003400340034083400340034003494
:1000C00000340034FF3400308A00110882076B28A6
:1000D0009128B228D228120882074C344334443481
:1000E000203443346C346F3463346B3420344934FB
:1000F0006E34743465347234663461346334653418
:100100002034763432342C3420344D346934633422
:1001100061346834203444346F347734743479343F
:1001200000341208820720342034203420344F3425
:1001300072346934673469346E3461346C34203419
:10014000643465347334693467346E3420344A342B
:1001500075346E34653420343234303430343034D5
:100160002C34003412088207203420342034203408
:1001700020342034203420342034203420342034DF
:1001800052346534763469347334653464342034DD
:100190004A3475346E34653420343234303430347B
:1001A00032340034120882074134773461346934C0
:1001B000743469346E346734203463346F346E348D
:1001C0006E3465346334743469346F346E342E3471
:0601D0002E342E34003431
:100200008316803086008501C83081008312850105
:1002100086010C3084008001840A30300402031D02
:100220000B2905145030D321051030308C001B21D0
:1002300005107621C9295030D32102303A210530EA
:10024000D32102303A210530D32102303A21053042
:10025000D321283047218A21083047218A210630BE
:1002600047218A210C3047218A21803047218A2169
:10027000061708000F399A00F03006051A048600A8
:1002800055210C0886045521CF30860508009B00B7
:100290009C009B0C9B0C9B0C1B0C3A211C083A21CC
:1002A0000800061347210617080000000000080098
:1002B00010308C0080305121080010308C00C0308C
:1002C0005121080020308C0080305121080020305E
:1002D0008C00C03051210800910092016320003E43
:1002E0000319080047218A21920A6E290130512101
:1002F0008A2158218A2100306C215D218A21013018
:100300006C2162218A2102306C2167218A2103300D
:100310006C2108000130D3290508F139A300100829
:100320000D020318231510080F020318A314100858
:100330000E020318A31523088500900A0319900ADA
:1003400008004030A200FF3094198E0094188F00EE
:1003500014198D008E08031D8E038F08031D8F0353
:100360008D08031D8D030130A000A1018C21861F83
:10037000C12930308C00861FC1298E018F018D016B
:10038000002BA10BB629A00BB629A20BA3290800AC
:100390009501150805209400FF3014020319C8299F
:1003A000A121950AC9299E0056309F000000000037
:1003B000000000000000000000000000000000003D
:1003C000000000000000000000000000000000002D
:1003D000000000000000000000000000000000001D
:1003E000000000009F0BD82900009E0BD4290800B4
:100600009D01861B062B9D0F012B18290830A40085
:10061000930106309D009D0B0B2B81018C21033033
:100620008A000108820700000000000000000000AE
:1006300000000000000000000000000000000000BA
:1006400000000000000000000000000000000000AA
:10065000000000000000000000000000000000009A
:10066000930C861F9317A40B0D2B131E97010F30AD
:10067000130599009604970A171C442B1908980033
:10068000960D960D960D960D130CA500A50CA50CB8
:10069000A50C250C07398207542B682B5C2B802B6B
:1006A000542B542B542B542B861F002B9D01861F3B
:1006B000002B9D0F572B1829061305108C011318BA
:1006C00006179318051413190C1693198C16542B2E
:1006D000971C542B9701F03006051804860055210D
:1006E0000C0886045521CF308605F0300605190424
:1006F000860055210C0886045521CF308605542BE1
:1007000017088207542B542B8B2B542B8F2B542BD5
:10071000932B9701542B16088D009601542B160825
:0E0720008E009601542B16088F009601542B64
:02400E00F23F7F
:00000001FF
