:020000040000FA
:100000000000000000000000C021061487210A2023
:100010000628080080308A204A08B500B601C91BAE
:10002000B60335084908B70035088A2037088A2002
:1000300037083507B8004C08B900BA01CB1BBA0322
:100040003908B5004B08B70035088A2037088A20E0
:1000500037083507B8074E08BB00BC01CD1BBC03F1
:100060003B08B5004D08B70035088A2037088A20BC
:1000700037083507B8075008BD00BE01CF1BBE03C7
:100080003D08B5004F08B70035088A2037088A2098
:1000900037083507B8075208BF00C001D11BC0039D
:1000A0005108B7003F08B5008A2037088A20370872
:1000B0003507B8075408C100C201D31BC203530857
:1000C000B7004108B5008A2037088A20370835076D
:1000D000B8075608C300C401D51BC4035508B700B0
:1000E0004308B5008A2037088A2037083507B80743
:1000F0005808C500C601D71BC6035708B7004508F6
:10010000B5008A2037088A2037083507B80738082D
:100110008A200800B3000911831609118312A22056
:100120000830B400331C96280915972809110310CC
:10013000B30CA220B40B92280915A220831609152E
:10014000831208004030B2000000B20BA42808005F
:10015000AC0047089F000F308605AE00F0302E053A
:100160008316860083124808AD00031DB928591470
:10017000BA2859102D0BBE28D914BF28D9102D0824
:10018000023A031DC5285915C62859112D08033AEE
:10019000031DCC28D915CD28D9110330AF002C0868
:1001A00086060000000000000000000000000000C3
:1001B000000000000000000000000000000000003F
:1001C00000000000000000000000AF0BCF2859180D
:1001D0001F150000000000000000000000000000EB
:1001E000000000000000D9181F15000000000000EA
:1001F00000000000000000000000000000000000FF
:1002000059191F1500000000000000000000000048
:100210000000000000000000D9191F151F190E2949
:10022000F030831686008312B1011E08B000B100C1
:10023000B00183161E088312B0040030B1043008E8
:10024000C70031080800A0004708A100A201A301CF
:10025000A401A5010830A600A7010030C8002108AC
:10026000C7002008A820A8004708A20728080318EC
:10027000280FA3070130C8002108C7002008A820C4
:10028000A9004708A40729080318290FA507023069
:10029000C8002108C7002008A820AA004708A20219
:1002A0002A08031C2A0FA3020330C8002108C70034
:1002B0002008A820AB004708A4022B08031C2B0F22
:1002C000A502FF30A607031CA70326082704031D69
:1002D0002D292308803E803E03187329A209A30913
:1002E000A20A0319A30A2508803E803E03187D292F
:1002F000A409A509A40A0319A50A2408A207250828
:100300000318250FA3072208C7002308080081301F
:10031000C70010302321CA004708C9008130C70038
:1003200020302321CC004708CB008130C70040306B
:100330002321CE004708CD008130C7008030232123
:10034000D0004708CF008930C70010302321D200E9
:100350004708D1008930C70020302321D400470846
:10036000D3008930C70040302321D6004708D5008C
:100370008930C70080302321D8004708D700080003
:10038000FF308316850086018701880104308900CB
:1003900083128501860187018801890182308316D5
:0C03A0009F00813083129F008B17080023
:02400E00FF3F72
:00000001FF
