:020000000528D1
:0800080005288316F030850085
:100010008601C83081008312850186010C3084007E
:100020008001840A30300402031D102819200021A9
:10003000B02A503060203830392005306020383008
:1000400039200530602038303920053060203830C4
:1000500039204820083039204820063039204820EF
:100060000C30392048208030392048200514BE1536
:1000700008008600432085144320851008000510E1
:1000800039200514080000000000000000000800EE
:100090000130602803308A0080303F2048205520FE
:1000A000C0303F204820552008001030BA003E08DC
:1000B0005F2039204820BE0ABA0B5728080082006A
:1000C000B700AC30B80000000000000000000000E5
:1000D0000000000000000000000000000000000020
:1000E0000000000000000000000000000000000010
:1000F0000000000000000000000000000000B80B3D
:1001000065280000B70B612808008A018207433484
:10011000223422343434323411341134233432341E
:100120001034013423343234113411342334433441
:100130002234223434348A01820733343334333462
:100140003334333434344434443444344434443421
:1001500044344434443444344434443444344434DF
:1001600044344434443444344434443444344434CF
:10017000333433343334333433343234223422346A
:100180002234223421341134113411341134113415
:100190001134113411341134113411341134113437
:1001A0001134113411341134113411341134113427
:0A01B0002234223422342234223497
:100200000C3084008001840A30300402031D02296E
:100210000030B1000F30B000B201B3010130B400C2
:100220002530B50008003508031908003602031808
:1002300080292430360203182529BF1F27293608B4
:100240000C3E8400000E2F21BF13B60A08003608AA
:100250000C3E84000008BF132F21BF1708000F3980
:10026000B90004303602031C36294529360D8400B6
:100270000410BF1F04143F30840708308000390881
:1002800032073302031C00140800043036028400D5
:10029000840D0410BF1F0414040CB700370C0E3972
:1002A000B70007300405473E840001308A00390852
:1002B00032073302031C6E2937088207001008003A
:1002C00080100800001108008011080000120800CA
:1002D0008012080000130800801308003708820706
:1002E000001408008014080000150800801508009C
:1002F0000016080080160800001708008017080084
:100300008C21B601BF133408B30730083302031C35
:1003100008003108B300080085113F088500470830
:100320008600051540088500480886000515410827
:100330008500490886000515420885004A088600A0
:100340000515430885004B088600051544088500FF
:100350004C0886000515450885004D0886000515E2
:0C036000460885004E08860005150800C0
:10040000B701051A062AB70F012AB02A0830B8002A
:10041000BA010C30B700B70B0B2A8101132102304F
:100420008A000108820700000000000000000000B0
:1004300000000000000000000000000000000000BC
:1004400000000000000000000000000000000000AC
:10045000000000000000000000000000000000009C
:10046000000000000000000000000000000000008C
:10047000000000000000000000000000000000007C
:10048000000000000000000000000000000000006C
:10049000000000000000000000000000000000005C
:1004A000000000000000000000000000000000004C
:1004B0000000000000000000BA0C051EBA17B80BBF
:1004C0000D2A3A1EBC010F303A05BB04BC0A3C1C85
:1004D0006A2ABB0E3A0CB700370E07398207772A13
:1004E000772A892A772A7F2A8C2A772A772A051E53
:1004F000002AB701051E002AB70F7A2AB02ABC1CB1
:10050000772ABC010510BE193B08BB010514392030
:10051000772A3A08BE00772A3C18772A02303C0234
:1005200003199E2A2A303D020318BD010C303D07F5
:1005300084003B088000BD0ABB01772A3B08BD0050
:10054000BB01772AB700B70E3B08B7023F13371835
:100550003F17370C3F399B20B7003F1FB70E0800ED
:10056000BE01BB010021F0308D008E00FF308C00F9
:100570008F004A202030BC000A30BD00B801380886
:100580008520B9003808103E84008001390E0F39EB
:10059000A222370EF039800439080F39A222370819
:1005A0000F398004B80A14303802031CBF2A132103
:1005B000051EDD2A4320051AE72A3608031DD72A1F
:1005C000BD0BD72ABB0FBC2ABC0BBC2AB92ABE0163
:0605D0000021BB01002A1E
:100600002D342D342D343D34203459346F3473342B
:1006100068346934213420343D342D342D342D3464
:10062000573461346934743469346E346734203437
:1006300066346F3472342034643461347434613419
:10064000203441344C344C34203459344F345534F4
:10065000523420344234413453344534203420342D
:100660004134523445342034423445344C344F34D0
:100670004E344734203454344F34203455345334BA
:10068000203453346F346D3465346F346E346534D4
:100690002034733465347434203475347034203429
:1006A0002034203475347334203474346834653421
:1006B000203462346F346D34623421342034203479
:1006C0002034203420342034203447346F347434C0
:1006D000203420342034203420342034203420347A
:1006E0002034203420342034203452346F346F349A
:1006F00074343F34203420342034203420342034E7
:100700004C3469346E34753478342C342034743479
:10071000683465342034623465347334743420347E
:100720006B3469346E34643420346F34663420346E
:100730006E3475346B34653473342E342034203485
:100740004934743427347334203463347534743446
:1007500065342E342E3420345734483441345434E4
:100760005434483445342034483445344C344C34C3
:100770002034493453342034493454343F34203401
:1007800059346F34753420346D3461347934203405
:100790006F34723420346D34613479342034203431
:1007A0006E346F3474342034683461347634653494
:1007B00020346D34613469346C3420342034203476
:1007C0004F346E3465342034703469346E34673499
:1007D000203474346F342034723475346C3465349E
:1007E0007434683465346D34203461346C346C3462
:1007F0002E3420342034203420342034203420344B
:02400E00F23F7F
:00000001FF
