:020000040000FA
:100000000330DA000830D900CA21061491210A20F1
:1000100006280800803091204A08B500B601C91BA7
:10002000B60335084908B7003508912037089120F4
:1000300037083507B8004C08B900BA01CB1BBA0322
:100040003908B5004B08B7003508912037089120D2
:1000500037083507B8074E08BB00BC01CD1BBC03F1
:100060003B08B5004D08B7003508912037089120AE
:1000700037083507B8075008BD00BE01CF1BBE03C7
:100080003D08B5004F08B70035089120370891208A
:1000900037083507B8075208BF00C001D11BC0039D
:1000A0005108B7003F08B500912037089120370864
:1000B0003507B8075408C100C201D31BC203530857
:1000C000B7004108B500912037089120370835075F
:1000D000B8075608C300C401D51BC4035508B700B0
:1000E0004308B50091203708912037083507B80735
:1000F0005808C500C601D71BC6035708B7004508F6
:10010000B50091203708912037083507B80738081F
:100110009120080009158316091500008E28831206
:100120000800B3000911831609118312AF200830AB
:10013000B400331C9D2809159E2809110310B30C27
:10014000AF20B40B99280915AF2083160915831227
:1001500008002030B2000000B20BAB28080040308D
:10016000B1000000B10BB1280800AC0047089F00A7
:100170000F3086058316860183124808AD00031DE3
:10018000C3285B14C4285B102D0BC828DB14C928B6
:10019000DB102D08023A031DCF285B15D0285B1118
:1001A0002D08033A031DD628DB15D728DB115A0882
:1001B000AE002C08860600000000000000000000D1
:1001C000000000000000000000000000000000002F
:1001D0000000000000000000000000000000AE0B66
:1001E000D9285B181F150000000000000000000067
:1001F00000000000000000000000DB181F150000D8
:1002000000000000000000000000000000000000EE
:10021000000000005B191F15000000000000000036
:10022000000000000000000000000000DB191F15A6
:100230001F191829F030831686008312B0011E089A
:10024000AF00B000AF0183161E088312AF04003068
:10025000B0042F08C70030080800A0004708A1001C
:10026000A201A301A401A5015908A600A70100301D
:10027000C8002108C7002008B520A8004708A20729
:1002800028080318280FA3070130C8002108C70059
:100290002008B520A9004708A40729080318290F3A
:1002A000A5070230C8002108C7002008B520AA0011
:1002B0004708A2022A08031C2A0FA3020330C80021
:1002C0002108C7002008B520AB004708A4022B086E
:1002D000031C2B0FA502FF30A607031CA70326084B
:1002E0002704031D37292308803E803E03187D29FB
:1002F000A209A309A20A0319A30A2508803E803E89
:1003000003188729A409A509A40A0319A50A240822
:10031000A20725080318250FA3072208C7002308F2
:1003200008008130C70010302D21CA004708C900DD
:100330008130C70020302D21CC004708CB00813010
:10034000C70040302D21CE004708CD008130C700C6
:1003500080302D21D0004708CF008930C7001030F1
:100360002D21D2004708D1008930C70020302D212F
:10037000D4004708D3008930C70040302D21D60073
:100380004708D5008930C70080302D21D8004708A4
:10039000D7000800FF308316850086018701880199
:1003A0000430890083128501860187018801890153
:1003B000823083169F00813083129F008B170800C4
:02400E00FF3F72
:00000001FF
