:020000040000FA
:020000000528D1
:08000800090083128501860145
:1000100083161130850001308600831208308D0070
:1000200040207E3A031D102840209000402091007F
:10003000100803192D281230840010088E0040206B
:100040008000840A8E0B1F288316EF3081008312F4
:1000500081011230840010088820123084001108B9
:1000600003191028B2208312010862201230840084
:1000700011088E0000086220840A8E0B3A2810288E
:10008000831603138112831203136400061C452890
:1000900081010B115330810008308C0064000B1D6E
:1000A0004E280301803E061C803E8F0C0B117E30D3
:1000B00081078C0B4E2864000B1D5B280618452811
:1000C0000F0808008F008316031381128312031395
:1000D000861481010B117E30810008308C00640091
:1000E0000B1D6F288F0C031C772886107828861428
:1000F0000B117E3081078C0B6F2864000B1D7D284F
:1001000086100B117E30810764000B1D84280800C7
:10011000051083168E0008308D00800D0510902884
:100120000000031805148D0BAB288E0BA42898280B
:100130009928031C05149C289D2805108312000093
:1001400008308D0005140800840A08308D00031C57
:10015000051400008D28AC28AD280000031C0514F0
:1001600000008D288E000518B328800D00108D0B1F
:10017000C8288E0BC02808308D0005180014080010
:10018000083005180014840A8D000518B328C52806
:0E0190000000CA28051800140518B328CC2852
:02400E00FE3F73
:00000001FF
